:0200000460009A
:100000004643464200000156000000000103030081
:1000100000000000000000000000000000000000E0
:1000200000000000000000000000000000000000D0
:1000300000000000000000000000000000000000C0
:1000400000000000010408000000000000000000A3
:100050000000800000000000000000000000000020
:100060000000000000000000000000000000000090
:100070000000000000000000000000000000000080
:10008000EB04180A063204260000000000000000FD
:10009000050404240000000000000000000000002F
:1000A0000000000000000000000000000000000050
:1000B0000604000000000000000000000000000036
:1000C0000000000000000000000000000000000030
:1000D00020041808000000000000000000000000DC
:1000E0000000000000000000000000000000000010
:1000F0000000000000000000000000000000000000
:10010000D8041808000000000000000000000000F3
:100110000204180804200000000000000000000095
:1001200000000000000000000000000000000000CF
:10013000600400000000000000000000000000005B
:1001400000000000000000000000000000000000AF
:10015000000000000000000000000000000000009F
:10016000000000000000000000000000000000008F
:10017000000000000000000000000000000000007F
:10018000000000000000000000000000000000006F
:10019000000000000000000000000000000000005F
:1001A000000000000000000000000000000000004F
:1001B000000000000000000000000000000000003F
:1001C000000100000010000001000000000000001D
:1001D000000001000000000000000000000000001E
:1001E000000000000000000000000000000000000F
:1001F00000000000000000000000000000000000FF
:10020000FFFFFFFFFFFFFFFFFFFFFFFFFFFFFFFFFE
:10021000FFFFFFFFFFFFFFFFFFFFFFFFFFFFFFFFEE
:10100000D100204000180060000000000000000037
:1010100020100060001000600000000000000000D0
:0C1020000000006000001F000000000045
:10102C00FFFFFFFFFFFFFFFFFFFFFFFF7EFFFFFF45
:1014000000040020E9180060EB180060EB18006091
:10141000EB180060EB180060EB180060EB18006040
:10142000EB180060EB180060EB180060D7660060F6
:10143000EB180060EB180060EB180060A17A006008
:10144000EB180060EB180060EB180060EB18006010
:10145000EB180060EB180060EB180060EB18006000
:10146000EB180060EB180060EB180060EB180060F0
:10147000EB180060EB180060EB180060EB180060E0
:10148000EB180060EB180060EB180060EB180060D0
:10149000EB180060EB180060EB180060EB180060C0
:1014A000EB180060EB180060EB180060EB180060B0
:1014B000EB180060EB180060EB180060EB180060A0
:1014C000EB180060EB180060EB180060EB18006090
:1014D000EB180060EB180060EB180060EB18006080
:1014E000EB180060EB180060EB180060EB18006070
:1014F000EB180060EB180060EB180060EB18006060
:10150000EB180060EB180060EB180060EB1800604F
:10151000EB180060EB180060EB180060EB1800603F
:10152000EB180060EB180060EB180060EB1800602F
:10153000EB180060EB180060EB180060EB1800601F
:10154000EB180060EB180060EB180060EB1800600F
:10155000EB180060EB180060EB180060EB180060FF
:10156000EB180060EB180060EB180060EB180060EF
:10157000EB180060EB180060EB180060EB180060DF
:10158000EB180060EB180060EB180060EB180060CF
:10159000EB180060EB180060EB180060EB180060BF
:1015A000EB180060EB180060EB180060EB180060AF
:1015B000EB180060EB180060EB180060EB1800609F
:1015C000EB180060EB180060EB180060EB1800608F
:1015D000EB180060EB180060EB180060EB1800607F
:1015E000EB180060EB180060EB180060EB1800606F
:1015F000EB180060EB180060EB180060EB1800605F
:10160000EB1800609D7C0060EB180060EB18006038
:10161000EB180060EB180060EB180060EB1800603E
:10162000EB180060EB180060EB180060EB1800602E
:10163000EB180060EB180060EB180060EB1800601E
:10164000EB180060EB180060EB180060EB1800600E
:10165000EB180060EB180060EB180060EB180060FE
:10166000EB180060EB180060EB180060EB180060EE
:10167000EB180060EB180060EB180060EB180060DE
:10168000EB180060EB180060EB180060EB180060CE
:10169000EB180060EB180060EB180060EB180060BE
:1016A000EB180060EB180060EB180060EB180060AE
:1016B000EB180060EB180060EB180060EB1800609E
:1016C000000000000000000000000000000000001A
:1016D000000000000000000000000000000000000A
:1016E00000000000000000000000000000000000FA
:1016F00000000000000000000000000000000000EA
:1017000000000000000000000000000000000000D9
:1017100000000000000000000000000000000000C9
:1017200000000000000000000000000000000000B9
:1017300000000000000000000000000000000000A9
:101740000000000000000000000000000000000099
:101750000000000000000000000000000000000089
:101760000000000000000000000000000000000079
:101770000000000000000000000000000000000069
:101780000000000000000000000000000000000059
:101790000000000000000000000000000000000049
:1017A0000000000000000000000000000000000039
:1017B0000000000000000000000000000000000029
:1017C0000000000000000000000000000000000019
:1017D0000000000000000000000000000000000009
:1017E00000000000000000000000000000000000F9
:1017F00000000000000000000000000000000000E9
:0818000000102020ED750060CE
:1018100072B6264880F30888254880F30988254851
:1018200025490860022080F31488BFF36F8F04F00D
:10183000FFFC04F040FC4FF0553020491B4A914218
:101840003CBF41F8040BFAE71D49194A91423CBFDD
:1018500041F8040BFAE71B491B4A1C4B9A423EBF56
:1018600051F8040B42F8040BF8E700201849194A14
:1018700091423CBF41F8040BFAE704F019FD05F072
:10188000B5FA154C154DAC4203DA54F8041B8847E1
:10189000F9E703F051FD124C124DAC4203DA54F853
:1018A000041B8847F9E704F001BD00000004002094
:1018B000000C00200014006008ED00E00000002093
:1018C000000400209C9C0060000C00202C0D0020D7
:1018D0000010002060220020081800600818006036
:1018E000081800600818006092E700F000F8FEE7B2
:1018F0002DE9F04FC1F80CD0D0F80CD0BDE8F08F36
:10190000002383F311882846A047002004F0BAFE84
:10191000FEE704F013FE00DFFEE7000053B94AB90A
:10192000002908BF00281CBF4FF0FF314FF0FF30E7
:1019300000F074B9ADF1080C6DE904CE00F006F8C2
:10194000DDF804E0DDE9022304B070472DE9F0473B
:10195000089E04468846002B40F085808A42154642
:1019600048D9B2FA82F24AB1C2F1200701FA02F371
:1019700020FA07F7954047EA030894404FEA154ECE
:10198000230CB8FBFEF71FFA85FC0EFB178843EA11
:10199000084307FB0CF1994209D9EB1807F1FF3016
:1019A00080F0E380994240F2E080023F2B445B1AD2
:1019B000A4B2B3FBFEF00EFB103344EA034400FB79
:1019C0000CFCA44509D92C1900F1FF3380F0CB8021
:1019D000A44540F2C88002382C4440EA0740A4EBFA
:1019E0000C0400271EB1D4400023C6E90043394649
:1019F000BDE8F087002A53D0B2FA82F2002A40F004
:101A0000B680491B4FEA154E1FFA85F80127B1FB36
:101A1000FEFC230C0EFB1C1143EA014308FB0CF1F6
:101A2000994207D9EB180CF1FF3002D2994200F22B
:101A3000EC808446591AA3B2B1FBFEF00EFB1014E1
:101A400043EA044408FB00F8A04507D92C1900F12B
:101A5000FF3302D2A04500F2DC801846A4EB080454
:101A600040EA0C40BEE78B4208D9002E78D0002710
:101A7000C6E9000138463946BDE8F087B3FA83F776
:101A80007FB98B4202D3824200F2BD80841A61EB9F
:101A9000030301209846002EA9D0C6E90048A6E716
:101AA000FFDEC7F12005BB4022FA05FC4CEA030C1F
:101AB00001FA07F420FA05F821FA05F34FEA1C4E63
:101AC00048EA0404B3FBFEF9210C0EFB19331FFA9C
:101AD0008CF841EA034309FB08FA9A4502FA07F237
:101AE00000FA07F10BD91CEB030309F1FF3080F07A
:101AF00088809A4540F28580A9F102096344A3EBEE
:101B00000A03A4B2B3FBFEF00EFB103344EA034415
:101B100000FB08F8A04508D91CEB040400F1FF33D2
:101B20006BD2A04569D90238644440EA0940A4EB6D
:101B30000804A0FB02894C45C6464B4654D351D0FD
:101B4000002E69D0B1EB0E0264EB030404FA05F534
:101B500022FA07F3FC401D43C6E90054002746E77C
:101B60003746304643E7184637E707461FE7C2F1D6
:101B7000200320FA03F7954001FA02F021FA03F35B
:101B80004FEA154E3843010CB3FBFEF71FFA85F8F8
:101B90000EFB173341EA034107FB08F38B4204FABB
:101BA00002F407D9691807F1FF3C28D28B4226D9E5
:101BB000023F2944CB1A81B2B3FBFEF00EFB103377
:101BC00041EA034100FB08F38B4207D9691800F191
:101BD000FF3C10D28B420ED902382944C91A40EA80
:101BE000074714E74145ABD2B8EB020E69EB0C0294
:101BF00001381346A4E76046F0E7184695E76746C4
:101C0000D8E781467BE7384645E7ACF1020C2B4428
:101C100010E702382C4421E73746E8E6704700BF5A
:101C200008B5062000F046FE012005F00DF900BFC2
:101C300000B50A4C2668054685B01C46F06852B1CE
:101C4000074B0091CDE9013206492B46224600F0B0
:101C500021F8FFF7E5FF044B1A46F2E7000C0020DD
:101C6000189C0060289C0060249C006008B5134606
:101C70000022FFF7DDFF00BF0CB400B583B004AB5A
:101C800053F8042B019300F03FFA03B05DF804EB26
:101C900002B070470EB410B583B005AB064C53F8D4
:101CA000042B01930146206800F02EFA03B0BDE832
:101CB000104003B0704700BF000C0020024B0146EB
:101CC000186800F07BB900BF000C0020024B0146F1
:101CD000186800F01DB900BF000C0020032A70B482
:101CE00012D940EA0105AD0704460B4620D119463A
:101CF000204653F8045B54F8046BAE4218D1043A02
:101D0000032A20461946F2D8541E72B103780A7885
:101D10009A4208BF241806D00CE010F8013F11F8D1
:101D2000012F934206D1A042F7D1002070BC70472A
:101D3000541EEBE7981A70BC704700BF844641EA16
:101D4000000313F003036DD1403A41D351F8043B33
:101D500040F8043B51F8043B40F8043B51F8043B85
:101D600040F8043B51F8043B40F8043B51F8043B75
:101D700040F8043B51F8043B40F8043B51F8043B65
:101D800040F8043B51F8043B40F8043B51F8043B55
:101D900040F8043B51F8043B40F8043B51F8043B45
:101DA00040F8043B51F8043B40F8043B51F8043B35
:101DB00040F8043B51F8043B40F8043B51F8043B25
:101DC00040F8043B51F8043B40F8043B403ABDD294
:101DD000303211D351F8043B40F8043B51F8043B36
:101DE00040F8043B51F8043B40F8043B51F8043BF5
:101DF00040F8043B103AEDD20C3205D351F8043BC5
:101E000040F8043B043AF9D2043208D0D2071CBF90
:101E100011F8013B00F8013B01D30B8803806046B9
:101E2000704700BF082A13D38B078DD010F003032F
:101E30008AD0C3F10403D21ADB071CBF11F8013B9F
:101E400000F8013B80D331F8023B20F8023B7BE7EE
:101E5000043AD9D3013A11F8013B00F8013BF9D219
:101E60000B7803704B7843708B78837060467047B3
:101E7000F0B4860746D0541E002A3CD0CAB20346AE
:101E800002E014F1FF3436D303F8012B9D07F8D19B
:101E9000032C29D9CDB245EA05250F2C45EA054585
:101EA00033D9A4F11006360903F1200707EB061712
:101EB00003F1100242E9045542E902551032BA42D8
:101EC000F8D1721C14F00C0F03EB021204F00F0691
:101ED00013D0331F23F003030433134442F8045B8D
:101EE0009342FBD106F003042CB1C9B21C4403F8A1
:101EF000011B9C42FBD1F0BC704734461346002CBA
:101F0000F3D1F8E714460346C2E71A462646E0E74F
:101F100000293CD038B551F8043C0C1F002BB8BF49
:101F2000E418054601F0C4FA234B1A682AB1A2420C
:101F30000DD921686018824223D0626028461C6057
:101F4000BDE8384001F0B6BAA34203D81A46536838
:101F5000002BF9D111685018A04219D024D821685B
:101F60006018834206D0636054602846BDE838405C
:101F700001F0A0BAD3E9000301446360216054601A
:101F8000F3E7D2E90002014462602160D6E77047BE
:101F900020680144501883421160E6D1D3E9000360
:101FA000014453601160E0E70C232B602846BDE834
:101FB000384001F07FBA00BF00100020F8B5CD1CFA
:101FC00025F0030508350C2D38BF0C25002D0646DD
:101FD00033DBA94231D82A4F01F06AFA3A6852B18C
:101FE00013685B1B04D43FE023685B1B29D52246A2
:101FF0005468002CF8D1796800293BD02946304636
:1020000004F007FF431C28D0C41C24F00304A042A2
:1020100005D0211A304604F0FCFE01301DD02560A9
:10202000304601F047FA04F10B0020F00700231DB1
:10203000C21A01D01B1AA350F8BD0C223260002036
:10204000F8BD0B2B05D8A242636811D05360E7E7B7
:10205000144623601C442560E2E70C2330463360BD
:1020600001F028FA0020F8BD0B2BF1D85368144674
:102070003B60D5E7304604F0CCFE7860BEE700BF99
:10208000001000209368013B002B93600FDA10B41E
:102090009469A34208DB0A2906D01368581C106013
:1020A0001970084610BC704710BC00F03BBC1368A8
:1020B000581C106019700846704700BF9BB1F8B5F6
:1020C00013440F4606465D1E541E01E0AC4208D084
:1020D0003A4614F8011F3046FFF7D4FF431CF5D1F0
:1020E000F8BD0020F8BD0020704700BF936810B510
:1020F000144613B95360184610BD00F0D3FE0023F8
:10210000C4E9013310BD00BF2DE9F04F9FB08B46ED
:1021100090461C46039018B18369002B00F0B780ED
:10212000A24B9B4500F0B980A14B9B4500F0C780B6
:10213000A04B9B4504BF039BD3F80CB0BBF80C30FD
:10214000180740F1B280DBF81030002B00F0AD80B2
:1021500030238DF8323098F8003005940021202289
:102160000B918DF83120944E0127002B00F08780D1
:10217000252B00F01581454603E0252B00F0A380B8
:1021800025466B786C1C002BF7D1B4EB080A76D08F
:102190004246534659460398FFF790FF01306ED0F0
:1021A0000B9B6A7853440B93002A68D000234FF0AE
:1021B000FF3201340693CDE908338DF85B301C9370
:1021C000079205E0069A07FA03F313432C46069399
:1021D0002546052215F8011B304601F0B1F8AA4644
:1021E000831B0028EED1069BD90644BF20228DF820
:1021F0005B2021781A0744BF2B228DF85B202A2907
:1022000066D1059A1168043200290592C0F29D80BA
:1022100009916178A51C2E2973D0684C03222046B1
:1022200001F08EF8002800F08680001B069B4024F9
:1022300004FA00F00343069305F101082978604889
:102240008DF83010062201F07BF8002800F0838022
:102250005C4B002B72D005AB00935A465A4B039847
:1022600006A9AFF300808146B9F1FF3F07D00B9B71
:102270004B440B9398F80030002B7FF479AFBBF8F8
:102280000C305B0618D40B981FB0BDE8F08F00F03F
:10229000E9FD464B9B457FF447AF039BD3F804B061
:1022A000BBF80C3018073FF54EAF5946039800F0C5
:1022B00099FB00283FF44CAF4FF0FF30E4E7039B5D
:1022C000D3F808B03AE7B4EB080A3FF46FAF5FE722
:1022D000A1F13002092A88BFA2469CD8099B01E0DF
:1022E0002C460135297803EB830302EB4303A1F16C
:1022F0003002092AAA46F3D92E2904F102050993CE
:102300008BD19AF801102A292FD1059B9AF8021037
:102310001A6807920433002A05930AF103050AF1AB
:10232000020338DB254C032220469A4601F008F8C8
:1023300000287FF47AAFA84655467FE7059B073310
:1023400023F007030833059391E7494243F0020362
:10235000099106935DE705AB00935A461A4B039823
:1023600006A900F0D5F881467EE7A1F130020023EE
:10237000092A079301D915E05546697803EB8303D1
:1023800002EB4303A1F13002092A05F1010AF3D956
:102390000235079341E74FF0FF329A4607923CE738
:1023A000444603E7AA46013537E700BFB89000600E
:1023B0009890006078900060589C0060609C00607D
:1023C000649C006000000000BD20006010B4044C5C
:1023D00013460A460146206810BCFFF795BE00BFB1
:1023E000000C00202DE9F0470C4691460A698968E7
:1023F000DDF820808A42B8BF0A46C9F8002094F868
:10240000431006461F4611B10132C9F80020236867
:1024100099065CD5D9F800200232C9F8002023685B
:1024200013F0060F19461DD1E1688A1A002AD8BF99
:10243000194617DD04F1190A002505E0E368D9F80B
:1024400000209B1AAB420CDD012352463946304630
:10245000C047013005F10105F0D14FF0FF30BDE874
:10246000F087216894F84330003318BF01238A06AF
:102470000AD5E1185A1C302081F84300224494F810
:10248000451082F84310023304F1430239463046C6
:10249000C0470130E1D02368A268216903F0060338
:1024A000042B1DD08A4226DD4FF00009521A9144B8
:1024B0001A34002501E04D451DDA01232246394634
:1024C0003046C047013005F10105F4D1C5E713F0EE
:1024D000060F13D094F84330003318BF0123D3E71D
:1024E000D9F80000E3688A42A3EB000323EAE3790A
:1024F000DCDC002BDCDC0020BDE8F087E168D9F8EB
:1025000000208A1A002AD8BF194693DCAAE700BF28
:102510002DE9F0430C46097E85B06E290646174624
:102520000C98984604F1430E6DD039D9732900F008
:10253000F68044D9752900F00481782940F0118192
:1025400078232268DFF858C284F845300168150600
:1025500051F8043B016040F1A180D10744BF42F033
:1025600020022260002B00F093801022002184F8CA
:1025700043106068A0600028C0F2C880216821F084
:1025800004012160002B40F0A380002840F0C080AF
:102590007546082A00F0AC80AEEB0503236141E0EC
:1025A000632900F0E5801AD8002938D0582940F076
:1025B000D88084F845102268DFF8E8C1C6E76F29A3
:1025C00000F0BF80702940F0CC802268DFF8D0C1D5
:1025D00042F020027823226084F84530B6E764296F
:1025E00002D0692940F0BD8022680368110603F11A
:1025F000040557D5196805600B46002959DBDFF83B
:10260000A4C10A22B5E70368226861691D1D05603F
:1026100015061B6802D4500600F1BD801960002326
:1026200075462361CDF800803B4603AA214630461B
:10263000FFF7D8FE013020D02A46236939463046BC
:10264000C047013019D022680398E368920719D572
:102650001A1A002A16DD04F11909002504E0E368BE
:1026600003981A1AAA420DDD01234A46394630461C
:10267000C047013005F10105F1D14FF0FF3005B041
:10268000BDE8F0839842B8BF184605B0BDE8F083B6
:10269000226822F020022260102267E7500648BF1D
:1026A0009BB25AE75106A5D5B3F90030056019462B
:1026B000A3E76168A1602D200029C3F1000384F81D
:1026C000430002DB22F004022260DFF8D8C00A22B5
:1026D000754600E00B46B3FBF2F102FB113093426A
:1026E0001CF8000005F8010DF4D2082A7FF454AF5D
:1026F0002368DB077FF550AF626823699A423FF792
:102700004BAF302305F8013C013D45E7002BDFD1FD
:102710009CF8003084F8423004F1420539E7036840
:102720006268191D01601D680021284600F008FE3E
:10273000002832D0401B60602061002384F84330C1
:1027400070E72268036812F0800F03F104051AD0C5
:102750001B6805606F290CBF08220A22DFF844C0FD
:1027600004E7012384F84210236104F14205E4E701
:1027700003681A68191D0123016004F1420584F8F9
:1027800042202361D9E712F0400F0DBF1B6805609E
:102790001B880560DEE7198041E76068CCE700BF71
:1027A000809C00606C9C006010B580210446FFF79F
:1027B00005FC606440B1031F00227C3043F8042F05
:1027C0008342FBD1002010BD4FF0FF3010BD00BF91
:1027D000436C0BB100207047E6E700BF1F2970B5BE
:1027E000054608D8436C16460C464BB153F82400F6
:1027F00043F8246070BD162202604FF0FF3070BDB8
:10280000FFF7D2FF08B96B6CF0E74FF0FF3070BDF7
:102810001F2938B521D8426C05460C466AB152F8DA
:10282000213053B1012B16D0591C10D00025204661
:1028300042F824509847284638BD284600F070F8E2
:10284000224601462846BDE8384000F055B8162318
:102850000360012038BD002038BD162303604FF00F
:10286000FF3038BD1F2921D838B5436C05460C46CA
:1028700083B153F8242003EB84034AB1511C10D0D8
:10288000012A0CD0002520461D609047284638BDFF
:10289000012038BDFFF788FF28B96B6CE9E70320FA
:1028A00038BD022038BD4FF0FF3038BD4FF0FF304B
:1028B000704700BF024B01461868FFF7A9BF00BF71
:1028C000000C0020024B0A4601461868FFF786BF3D
:1028D000000C0020034B1868436C0BB100207047BC
:1028E00062E700BF000C0020024B01461868FFF7AA
:1028F000B9BF00BF000C002038B50B46074C054699
:10290000114618460023236004F0A6FA431C00D0A9
:1029100038BD2368002BFBD02B6038BD5C22002023
:1029200004F0A2BAF8B50D461446064608B183690C
:1029300043B3254B9C422AD0244B9C4229D0244BA4
:102940009C4208BFF468A389A269A2601A0722D535
:10295000236903B322686169D31AEDB299422F4605
:1029600029DD0133A168501C0139A1602060157078
:1029700062699A4216D0A389DB0701D50A2D11D0CE
:102980003846F8BD00F06EFA0F4B9C42D4D1746803
:10299000D9E7B468D7E72146304600F023F838B9C4
:1029A0002369D7E72146304600F032F90028E7D006
:1029B0004FF0FF37E4E72146304600F029F90028C0
:1029C000F6D122680123CDE7B890006098900060AE
:1029D00078900060024B0A4601461868FFF7A2BFD4
:1029E000000C00203B4B70B51D6806460C460DB12F
:1029F000AB69DBB1384B9C421ED0384B9C424AD06D
:102A0000374B9C4208BFEC68B4F90C2093B219070D
:102A100018D5206908B313F001022CD06369002295
:102A20005B42A361A26060B3002070BD284600F045
:102A300019FA294B9C42E0D16C68B4F90C2093B28E
:102A40001907E6D4DD063CD5580726D4206942F0A4
:102A50000803A3819BB20028DDD103F42072B2F5F4
:102A6000007FD8D03046214600F01EFCA3892069A3
:102A700013F00102D2D1990758BF6269A260002801
:102A8000D2D1B4F90C301A06CFD543F04003A3815C
:102A90004FF0FF3070BDAC68B6E7616B51B104F127
:102AA0004403994204D03046FFF732FAB4F90C20BF
:102AB0000023636300232069636022F02402206006
:102AC000C5E742F04002092333604FF0FF30A28196
:102AD00070BD00BF000C0020B890006098900060AE
:102AE000789000608B891A072DE9F0410C468046EA
:102AF00041D44A68002A59DDE66A002E53D00022EC
:102B0000D8F80050216AC8F8002013F4805251D13F
:102B100001234046B047431C5FD0A389E66A216A7F
:102B20005F0705D56268636B801A0BB1236CC01A0E
:102B3000024600234046B047461C45D1D8F8003035
:102B4000B4F90C20002B55D01D2B01D0162B5AD1D7
:102B500023690022C4E90032616BC8F8005011B348
:102B600004F14403994202D04046FFF7D1F9002016
:102B70006063BDE8F0810E69AEB10D680E60990723
:102B80000CBF63690023AD1BA3600AE02B463246ED
:102B9000A76A216A4046B8470028A5EB000506440D
:102BA0000ADD002DF2DC0020BDE8F0810A6C002A6D
:102BB000A2DCF8E7606DB3E7A38943F04003A3818B
:102BC0004FF0FF30BDE8F0812269A3892260002226
:102BD0006260DA04C0D56065BEE7D8F80030002B2B
:102BE0009BD01D2B0CD0162B0AD0A38943F0400399
:102BF000A381D9E72169C4E90013D304ACD5EAE77E
:102C0000C8F80050CFE742F04002A281CCE700BFF5
:102C10000B6923B310B5044682B008B18369BBB118
:102C2000104B994212D0104B994216D00F4B99423B
:102C300008BFE168B1F90C302BB1204602B0BDE805
:102C40001040FFF74FBF002002B010BD6168F1E7F0
:102C5000019100F007F90199E2E7A168EAE7002095
:102C6000704700BFB8900060989000607890006056
:102C700020B1054B01461868FFF7CABF034B044952
:102C8000186800F0B9BA00BF000C00207490006012
:102C9000112C006000207047014900F0ADBA00BF60
:102CA000112C00600020704770B54A1E682505FB96
:102CB00002F50E4605F17401FFF780F9044640B1B4
:102CC00000210C30666005F168022160A060FFF70A
:102CD000CFF8204670BD00BF1E4B70B51D68AB69B4
:102CE000064643B34835D5E90134013B05D51EE01E
:102CF000013B5A1C04F1680419D0B4F90C20002AD5
:102D0000F6D10025144B6566C4E90055A560C4E9F9
:102D10000455A5612946E360082204F15C00FFF731
:102D2000A7F8C4E90D55C4E91255204670BD2C68BA
:102D30002CB12546D7E7284600F010F8D2E7042149
:102D40003046FFF7B1FF044628600028F1D10C237C
:102D50003360EAE7749000600100FFFF2DE9F84F4F
:102D6000334B34491A68816290424FF00003C0E946
:102D70001233036504BF012383610546FFF7ACFFEF
:102D800068602846FFF7A8FFA8602846FFF7A4FF61
:102D90006E68E86000240423F3607466C6E90044AA
:102DA000B460C6E90444B461214606F15C0008221F
:102DB000FFF75EF8DFF888B0AF68DFF888A0DFF8CB
:102DC0008890DFF888801C4BC6F83080C6E9086B15
:102DD000C6E90AA92146FB6008227C66C7E90044CF
:102DE000BC60C7E90444BC6107F15C00FFF740F830
:102DF000EE68124BC7F83080C7E9087BC7E90AA91B
:102E00002146F3607466C6E90044B460C6E9044430
:102E1000B46106F15C000822FFF72AF80123C6E935
:102E2000086BC6E90AA9C6F83080AB61BDE8F88F27
:102E300074900060992C00600900010012000200EB
:102E4000053500602D3500606D3500608D35006002
:102E5000024B0349186800F0CFB900BF74900060BE
:102E6000112C0060836903B978E77047704700BF91
:102E7000704700BF704700BF704700BF024B034957
:102E8000186800F093B900BF000C0020952C00607A
:102E9000024B0349186800F089B900BF000C0020FC
:102EA000A52C00609368002B00F002812DE9F04F03
:102EB000B1F90C309BB20C46190783B0824690469C
:102EC00035D522699AB313F00202D8F800603DD0DC
:102ED0000027D4F828B0D4F820C0DFF8CC923D46C3
:102EE0004D452B463A4628BF4B4661465046D5B124
:102EF000D847002840F3D280D8F808301B1A07447E
:102F00002D1AC8F80830002B00F0B780D4F820C084
:102F1000D4F828B04D452B463A4628BF4B4661466B
:102F20005046002DE4D1D6E900750836D8E7214691
:102F30005046FFF757FD002840F03081B4F90C30BF
:102F4000D8F800609BB213F00202C1D113F001095E
:102F500040F0B080A76820684D46002D54D09A05F7
:102F600040F1BC80AF42BB4600F2E78013F4906FA3
:102F70002FD0D4E9041707EB4707A0EB010B07EBB1
:102F8000D777681C7F105844B8423A4684BF07463A
:102F90003A465B0540F1E98011465046FFF70EF8CE
:102FA000002800F0F5805A4621690190FEF7C6FE20
:102FB000A289019B22F4906242F08002A281A7EBD9
:102FC0000B0203EB0B00676123612060A2602F46B8
:102FD000AB465A46494600F003FAA2682368D21B62
:102FE0005B442F46A26023600025D8F80830DB1B25
:102FF000B944C8F80830002B3FD0B4F90C30A768AA
:1030000020689BB2002DAAD1D6E900950836A4E726
:103010000BF1080353E902679B460833002FF9D0F0
:103020003A460A21304600F08BF9002853D001308F
:10303000A0EB06094B46D4E904122068BB4228BF26
:103040003B46884203D9A5681544AB4219DC9A4235
:103050007DDC1346A56A216A32465046A847051E04
:103060001CDDB9EB05096BD00120D8F808305B1BDB
:103070002E447F1BC8F8083013BB002003B0BDE806
:10308000F08F31462A4600F0ABF923682B442360C9
:1030900021465046FFF7BCFD0028E2D0B4F90C30C1
:1030A00043F040034FF0FF30A38103B0BDE8F08F41
:1030B0000020704733469146104617464E469B46C1
:1030C000002FA5D00028B5D13A460A21304600F09D
:1030D00037F90028ABD17B1C9946ACE723698342C2
:1030E00015D36169A94212D82E4BA76A9D4294BF9D
:1030F0002B466FF000434A4693FBF1F3504601FB29
:1031000003F3216AB847071EC8DDED1B6DE7AF4228
:1031100028BF2F463A46494600F062F9A368226864
:10312000DB1B3A44A3602260002BEED121465046BF
:10313000FFF76EFD0028E8D0B0E72F46AB4648E722
:1031400021465046FFF764FD00288ED0A6E71A46B8
:103150003146019300F044F9019BA1682268C91A25
:103160001A44A16022601D467BE7504600F0A4F996
:10317000034600287FF423AF21695046FEF7C8FEBE
:10318000B4F90C300C2223F08003CAF8002087E742
:103190000C23CAF80030B4F90C3081E74FF0FF304F
:1031A0006CE700BFFEFFFF7F00FCFF7F2DE9F041D1
:1031B00010F148071BD088460026D7E90154013D8D
:1031C0000FD4A389012B05F1FF3506D9B4F90E30D0
:1031D0000133204601D0C04706436B1C04F168044C
:1031E000EFD13F68002FE8D13046BDE8F0813E4680
:1031F0003046BDE8F08100BF2DE9F84310F14807E3
:103200001FD0884606464FF00009D7E90154013D1A
:1032100011D4A389012B05F1FF3508D9B4F90E307B
:1032200001332146304602D0C04749EA00096B1CF1
:1032300004F16804EDD13F68002FE6D14846BDE8AF
:10324000F883B9464846BDE8F88300BF70B50C4620
:10325000B1F90E10002996B016461D4613DB6A46DA
:1032600003F0E4FD00280EDB019A02F47042A2F59F
:103270000052B2FA82F252094FF4806300202A60B1
:10328000336016B070BDA38900221B062A6004D5E6
:1032900040230020336016B070BD4FF480630020DF
:1032A000336016B070BD00BF8A8992070B4606D501
:1032B00001F1470201211A60C3E90421704770B58A
:1032C00082B001AB6A460C460646FFF7BFFF009985
:1032D00005463046FEF772FEB4F90C3070B116495F
:1032E000B162019A0099206043F08003A381C4E990
:1032F00004018AB92B43A38102B070BD9A05FBD4A7
:1033000023F0030304F1470243F002030121A381E8
:103310002260C4E90421EFE73046B4F90E1003F04F
:1033200091FD10B9B4F90C30E4E7A38923F003034D
:1033300043F001031BB2DDE7992C006000000000A0
:1033400001F0FF01102A2BDB10F0070F08D010F856
:10335000013B013A8B422DD010F0070F42B3F6D15A
:10336000F0B441EA012141EA014122F007047FF073
:1033700000070023F0E80256083C85EA010586EACA
:10338000010685FA47F5A3FA87F586FA47F6A5FA06
:1033900087F68EB9EED1F0BC01F0FF0102F0070212
:1033A00032B110F8013B013A83EA010313B1F8D1BD
:1033B0000020704701387047002D06BF354603389E
:1033C000073815F0010F07D1013015F4807F02BFD7
:1033D000013015F4C03F0130F0BC0138704700BF28
:1033E0008842F0B40DD98B1883420AD9841832B1BF
:1033F000224613F8014D02F8014D9942F9D1F0BC73
:1034000070470F2A0ED80346541E002AF7D0013405
:103410000C44013B11F8012B03F8012FA142F9D113
:10342000F0BC704740EA01039B073BD1A2F11007B3
:103430003F0901F1200606EB071601F1100300F128
:10344000100453F8105C44F8105C53F80C5C44F81A
:103450000C5C53F8085C44F8085C53F8045C44F8CE
:10346000045C1033B34204F11004EAD17B1C1B014D
:1034700012F00C0F194402F00F05034415D0043D5F
:10348000AD0803EB850C1C1F0E4656F8047B44F870
:10349000047F6445F9D10135AD002B44294402F085
:1034A0000302B1E7541E0346B1E72A46ACE700BF6A
:1034B000704700BF704700BF09B3F8B51446CAB1E2
:1034C00006460D4600F066F8A04202D32F46384665
:1034D000F8BD21463046FEF771FD07460028F6D0BC
:1034E00022462946FEF72AFC30462946FEF710FD03
:1034F0003846F8BD2746FEF70BFD3846F8BD1146A5
:10350000FEF75CBD10B50C46B1F90E1003F076FC69
:10351000002803DB636D0344636510BDA38923F4B6
:103520008053A38110BD00BF002070472DE9F041FA
:103530001646B1F90C201F46D3050C460546B1F9D5
:103540000E1009D422F48052A2813B46324628460E
:10355000BDE8F04103F059BC0022022303F053FC04
:10356000B4F90C20B4F90E10ECE700BF10B50C460E
:10357000B1F90E1003F047FCA389421C0EBF23F4DF
:10358000805343F480536065A38110BDB1F90E10E0
:1035900003F03DBC51F8043C181F002BBCBF0B5876
:1035A000C018704710B5074C01F01EFD20460622DA
:1035B0000D2104F0A1F8204601220D21BDE81040A4
:1035C00004F08CB800400042044B586842F6DF61BA
:1035D0005A68121A8A42FBD9704700BF001000E0F7
:1035E00038B5054600F06EF9044600F009F9601E92
:1035F000072805D8DFE800F01D1F26040404334621
:1036000001220C21264804F069F801221A214FF00A
:10361000844004F063F8012219214FF0844004F043
:103620005DF8012218214FF0844004F057F8284635
:1036300038BD0022E5E700220C21194804F04EF8BD
:103640000022E3E700220C21154804F047F800228D
:103650001A214FF0844004F041F80022DCE70022F8
:103660000C210F4804F03AF801221A214FF084404F
:1036700004F034F8012219214FF0844004F02EF8B0
:103680000022CFE700220C21054804F027F8002291
:103690001A214FF0844004F021F80022EBE700BF2C
:1036A0000040004210B5134C06220D21204604F0C4
:1036B00023F806220C21204604F01EF806221A21C7
:1036C0004FF0844004F018F8062219214FF084408E
:1036D00004F012F8062218214FF0844004F00CF890
:1036E0000020FFF77DFF044A137843F08003137036
:1036F00010BD00BF004000420021002001207047A3
:1037000008280DD80E290BD8062A09D8C1EBC1010B
:10371000692303FB00101044024B33F8100070477C
:1037200001207047D8900060FFF7EABF0120704782
:1037300008B5FFF7FBFF08BD012070470120704767
:1037400008B5FFF7FBFF08BD704708B5FFF7FCFFA2
:1037500008BD000013B502AB03E903000F4B1B7853
:10376000B3B99DF80530009873B16AB100F012FD4D
:1037700004460146009800F0DBFC0099204602B0A8
:10378000BDE8104001F008BB00F0ECFC0446F4E793
:10379000009800F0FFFC0099F1E700BF0D10002039
:1037A000034610B400885C880A4640EA04409988C1
:1037B00010BCFFF7CFBF10B501210446FFF7F0FFA3
:1037C0002146FFF7B5FF10BD10B500210446FFF7F5
:1037D000E7FF2146FFF7B9FF10BD704708B500F0BD
:1037E000B5FBFFF7FAFF40F6C410BDE8084002F051
:1037F0004EBF08B5FFF7F2FFBDE8084002F0D0B9B0
:1038000008B5FFF7EBFFBDE8084002F0D0B938B5C6
:1038100001210546FFF7C4FF29460446FFF790FF44
:1038200008B9002038BD2946204601F0BDFF002818
:10383000F7D02946204601F04FFE0028F1D0294656
:10384000204601F02FFF0028EBD06B795BB147F6E3
:1038500003439C421DD00AD8B4F5F84F16D047F662
:1038600001439C4217D02846FFF766FFDAE747F688
:103870005B439C4215D047F65C439C420ED047F612
:103880005A439C42EFD101F077F8ECE7FFF7B1FF24
:10389000C7E701F077F8FFF7B3FFC2E701F060F880
:1038A000E1E701F06CF8DEE708B502F0E8F8BDE802
:1038B000084000F037B808B500F039F8BDE8084016
:1038C00002F0E2B8030C002B16BF184600231023A9
:1038D000020A1CBF1046083302091EBF04331046FB
:1038E000DBB282081EBF02331046DBB242081CBFA7
:1038F0000133DBB2184670477047704738B505464C
:10390000FFF7FCFE044610B12846FFF7F6FF2046FD
:1039100038BD704710B50446FFF7EEFF2046FFF7AD
:10392000EDFF10BD08B50020FFF7F4FF08BD08B596
:1039300001F08EFFFFF7EEFF08BD000010B501F0AB
:1039400087FF074B1A788242044607D0187002F0AE
:10395000E5F8044B18602046FFF7DCFF10BD00BF00
:103960000C100020081000201FB56C4684E80300EE
:103970009DF805300BB100F023FF0023ADF80E30A9
:1039800094E8030011F0FF0F0290ADF80C1002ACA8
:1039900005D194E8030000F057FE04B010BD2046A6
:1039A000FFF709FF0028F4D1F7E70379012B02D1D3
:1039B000008800F011BC704710B50446002857D0AD
:1039C000822813D101F044FF810751D4392000F03F
:1039D0009DFE00F03DFF4FF4487002F058FE392084
:1039E00000F09CFEBDE8104000F032BF83280ED1ED
:1039F00001F02EFFC2073BD4532000F087FE00F0F9
:103A000027FF4FF47A7002F042FE5320E8E7842843
:103A10000ED101F01DFF43072AD4472000F076FEA7
:103A200000F016FF4FF47A7002F031FE4720D7E71E
:103A3000031FDBB2A02B0ED80E4B0146186801F015
:103A400045FF20B1204600F069FE00F001FF20464E
:103A500000F05CFEC6E700F12003DBB2072B07D8BD
:103A600000F007040120A040C0B200F083FEB9E7D7
:103A700010BD00BF640C002008B500283CD082288F
:103A80000FD101F0E5FE810736D5392000F03EFE6A
:103A900000F0DEFE392000F041FEBDE8084000F0F5
:103AA000D7BE83280AD101F0D3FEC20724D5532004
:103AB00000F02CFE00F0CCFE5320ECE784280AD165
:103AC00001F0C6FE430717D5472000F01FFE00F0A7
:103AD000BFFE4720DFE7021FD2B2A02ADBD900F1E8
:103AE0002002D2B2072A07D800F00703012098402D
:103AF000C0B200F047FED0E708BD38B505460C4619
:103B0000FFF75AFF1CB92846FFF7B6FF38BD0A2059
:103B1000013C02F0BCFDA4B2F4E708B539280CBFA3
:103B200050210021FFF7E9FF08BD08B528B100F0DA
:103B300021FEBDE8084000F08BBE08BD08B528B1E5
:103B400000F020FEBDE8084000F082BE08BD000085
:103B50002DE9F0478679457980460C4600F0FAFD5C
:103B600036090746F0B12F46E5B1C4F3072303F049
:103B7000F002402A09D004F12002D2B2072A23D948
:103B80001EB903F0E003202B20D0B04B5F7817F074
:103B9000040707D0022000F0B3FE00F0DBFD80F048
:103BA0000100C7B2C4F303330B2B43D8DFE813F093
:103BB0001000100063006300420042004200420017
:103BC000C3002101310131010027EBE73746E9E766
:103BD000C4F30723C4F3032613F0F00F18BF360114
:103BE0005FFA84F995B166B109F12003DBB2072BC6
:103BF000304602D9B9F1000F05D100F0BBFD00F04D
:103C000027FE48465CE000F0CBFDF8E74846FFF7AA
:103C100033FF7EB109F12003DBB2072B304602D916
:103C2000B9F1000F02D100F0ADFD01E000F0C0FDE0
:103C300000F00EFEC4F30334083C032C03D801F05B
:103C400007FEFFF767FE002F00F03E8100F07AFDCF
:103C500010F0010040F0388188F8050000F06CFD9C
:103C600000F0FCF9404600F045F900F065FDBDE8C4
:103C7000F04700F0FFB9C4F3072303F0F003C4F3E7
:103C80000329202B5FFA84FA18BF4FEA0919BAF109
:103C9000000F07D0BAF1010F35D0002D3DD0E6B1AD
:103CA00050460DE0694B5B78590714D45DB1B9F10A
:103CB000000F04D0484600F05DFD00F0C9FD002073
:103CC000FFF77AFEB6E72846FFF7D6FEB9F1000FF8
:103CD000B0D04846A7E755B11EB94846FFF725FFC3
:103CE000A8E7012EA6D1484600F08AFDA2E7002EE3
:103CF000A0D14846FFF722FF484600F08FFD484616
:103D000000F06AFD96E715B1052E93D8E5E7042E7D
:103D100090D84846FFF712FF8CE7002EF9D0BAF191
:103D2000390F0CBF4FF44870012002F0B0FC504630
:103D3000FFF7A2FE7EE714F4407F29D1002D7FF427
:103D400079AFE206C4F3421348BF0F254FEA83035D
:103D500048BF9D4004F00F0048BFED4300FA03F058
:103D6000C4F3812348BFADB280B2022B40EA050004
:103D700008D00AD8012B02D000F04AF95AE700F027
:103D80003FF957E700F04CF954E700F036F951E7F6
:103D9000C4F30122D3B20DB302F00103002B3FF4B0
:103DA00049AFC4F34210820014F010001CBF0F2072
:103DB000904004F00F0318BFC04303FA02F3C4F3AA
:103DC000812218BF80B29BB2022A40EA03000AD0C7
:103DD0000CD8012A04D000F06DF92BE75B08DDE771
:103DE00000F060F926E700F06DF923E700F024F910
:103DF00020E75FFA84F9C4F303261DB1304600F0D2
:103E00002DF96AE74846FFF799FE304600F032F98F
:103E100010E75FFA84F9A9F1F003042B3FD8DFE83B
:103E200003F003240E1720003DB1042E3FF602AF2D
:103E3000C4F3042000F02AF9FCE6052EF6E7C4F3EB
:103E40000420002DE2D100F009F9F3E60021002062
:103E500025B1C4F3042000F0FAF8EBE600F0F4F822
:103E6000E8E61A4B5B785B0704D4C4F30420002D0A
:103E7000CCD0E8E74DB1C4F30425284600F0EEF8B5
:103E80000321284600F01AFDD4E6012000F038FD99
:103E9000012E7FF6CFAE022000F032FDCAE62DB132
:103EA000002E7FF4AEAEC4F30420CCE74EB1B9F1DE
:103EB000390F0CBF4FF44870012002F0E8FB484670
:103EC00036E7C4F30420A1E7BDE8F0870021002015
:103ED00038B501880446407900F08AF9054600F0BB
:103EE000F9F800F089F829462046BDE83840FFF788
:103EF0002FBE0000037910B50446B3B1FFF787FC6D
:103F000068B900F027FC80B1637973B1074B5B7827
:103F10005B070AD50220BDE8104000F0F1BC204646
:103F2000FFF7D6FF2046FFF74FFC10BD0021002011
:103F300008B500F045FCBDE8084000F089BC08B5B4
:103F400000F0F4FBBDE80840FFF7F2BF08B500F051
:103F500021FCBDE80840FFF7F2BFC0F303320E3288
:103F600002F00F02092A10B5C4B21BD8012101FAD0
:103F700002F340F20332134203D113F010000DD1CB
:103F800010BDF02C10D004D8E72C8CBF00200120ED
:103F9000F6E7F42C14BF00200120F1E7E72C03D949
:103FA000F12CF7E70020EBE70846E9E708B50379CD
:103FB00033B1008800F010F9BDE80840FFF7CDBF2D
:103FC000184608BD82B002AB03E9030002B0704797
:103FD00082B002AB03E9030002B07047704708B536
:103FE000FFF7FCFF08BD000008B5FFF7F8FF014B25
:103FF000188008BD0E1000207047FFF7F5BF0000C5
:10400000024B1B881843FFF7EFBF00BF0E100020C4
:10401000024B1B881840FFF7E7BF00BF0E100020BF
:10402000024B1B885840FFF7DFBF00BF0E10002077
:1040300008B5FFF7D5FA08BD08B5FFF7F9FF014B42
:10404000188008BD101000200020FFF7F5BF0123E5
:1040500003FA00F080B2FFF7EFBF0000012303FA7C
:1040600000F0034B1B88184380B2FFF7E5BF00BF89
:1040700010100020012303FA00F0034B1B8823EAF1
:104080000000FFF7D9BF00BF10100020012303FA82
:1040900000F0034B1B88584080B2FFF7CDBF00BF34
:1040A00010100020024B1B881843FFF7C5BF00BF4C
:1040B00010100020024B1B881840FFF7BDBF00BF47
:1040C00010100020024B1B885840FFF7B5BF00BFFF
:1040D00010100020704701F0070330B5C908012413
:1040E00002EB81029C40E4B2013A002112F8015F28
:1040F00020FA01F343F300036B40234001316B408E
:1041000004291370F2D130BD10B5002200F007046D
:10411000C00801EB800110468B5CE34003F0010313
:10412000934001321843042AC0B2F5D110BD0000FB
:1041300082B00B46ADF80400C0F307200E280CD85F
:104140009DF80410062908D8C0EBC0000144044AB9
:1041500089B2184602B0FFF7BEBF02B0704700BF79
:104160001210002082B0ADF80400C0F307200E2822
:104170000BD89DF80430062B07D8C0EBC0001844BC
:10418000034980B202B0FFF7BFBF002002B0704702
:10419000121000200E4B73B51E880E4BADF80400B4
:1041A0001B880F241E4346FA04F3DB07E5B206D44E
:1041B00014F1FF34F7D20025284602B070BD0199F2
:1041C000284600F0FAFD80B20128F1D0F4E700BFE4
:1041D000101000200E10002007B5ADF80400019863
:1041E000FFF7D8FF019903B05DF804EB00F0E5BDDF
:1041F00013B5104BADF804101B782BB1019802B029
:10420000BDE81040FFF7E8BF70B10198FFF7C2FFAB
:10421000044601460198FFF78BFF0199204602B042
:10422000BDE8104000F0C9BD0198FFF79BFF0446B0
:10423000F3E700BF0D100020F8B50C4B0C4E1C78B6
:104240000C4D3378A34200D1F8BD05EBC40335F81B
:1042500034005F889A88D98840EA074042EA0141E1
:104260000134FFF7B5FE04F00704EAE793100020DD
:104270009210002052100020064B10B418885C8861
:104280009A88D98840EA044042EA014110BCFFF70D
:104290009FBE00BF4A100020F8B51B4B9A7912F060
:1042A000F00F0AD15A7942B1184A194912780D789B
:1042B0001E885F88174CAA4200D1F8BD11B204EBEA
:1042C000C1000079E0B134F83110B14218D104EBEB
:1042D000C2004179A1B94188C91B89B2C7290FD849
:1042E0009979012262F307119971837962F30713B7
:1042F00083710548FFF7FEFDBDE8F840FFF79CBF5E
:10430000013202F00702D6E74A1000209310002085
:10431000921000205210002070B50D4B0D4A1B78F2
:1043200015780D4CAB4202D10022104670BD04EB53
:10433000C30256788E4206D114F83360864202D109
:104340005279002AF1D1013303F00703EAE700BFF5
:104350009310002092100020521000202DE9F04F01
:1043600089B002AB044606220146B64D1846FDF759
:10437000E5FC2A7967790346A8462079C2B9A8B135
:104380008FB12046FFF712FE064660B10822214693
:104390002846FDF7D3FC2846FFF707FBFFF77CFF15
:1043A000FFF76AFF65E02046FFF7A4FD012660E005
:1043B000B4F802A06A886E7994F800B094F801907D
:1043C000AAEB020292B2002E00F0ED80C72A00F2A2
:1043D000A18000284DD0AB792888228813F0F00FF7
:1043E00062D190420ED1002F4DD1012262F307130A
:1043F000AB71FFF741FF2846FFF77CFDAB79A37156
:10440000002636E0002F3ED149465846FFF784FF8C
:104410005846FFF781FF05460028F1D18DF808B016
:104420008DF809900298FFF7D7FEC0F303310B29EE
:1044300012D801228A4012F4406FC3B21DD112F08B
:104440000C0F0ED1910707D010F4706F00D07BB124
:104450002033DBB2072B0BD92046FFF74BFD354647
:1044600006E010F4706FF3D0A27912F0F00FEFD1E4
:104470002E46304609B0BDE8F08FEF2BF8D90F3348
:10448000DBB2022BE7E798F806306E4843F00103F1
:1044900088F80630FFF72EFD6A4808220021FDF754
:1044A000E7FCFFF7E9FEABE790420AD14FB920469F
:1044B000A371FFF71FFD082221462846FDF73EFCA9
:1044C0006EE72046FFF772FD00283FF46CAF002F27
:1044D0003FF469AF98F806301F2B11D9B8F80020C7
:1044E000ADF8102098F804208DF814200022ADF8C3
:1044F00012A08DF815208DF8163004A8FFF7FAFCED
:10450000082221464F48FDF719FCFFF7C5FEFFF7CB
:10451000B3FE4BE7AA7912F0F001019114D18DF8A6
:1045200008B08DF80990ADF80AA08DF80C008DF850
:104530000D7093E80300FFF745FD2846FFF7DAFC0E
:10454000082201992846AAE7002892D028882388C3
:1045500098420AD14FB9A2712046FFF7CBFC08223E
:1045600039462846FDF784FC83E72046FFF71EFD09
:1045700000283FF418AF002F3FF415AF98F806302D
:104580001F2BBDD9B8F80020ADF8182098F80420EA
:104590008DF81C200022ADF81AA08DF81D208DF892
:1045A0001E3006A8AAE7C72A37D800283FF4FEAE77
:1045B0003E46002F3FF4F7AE2988238899421ED14A
:1045C000952A16D8AB79DA0713D413F0F00210D07D
:1045D000F02AA37106D0DBB2C3F30312013262F3F7
:1045E0000713A3712046FFF785FC082221461548D2
:1045F00064E7082221461348FDF7A0FB39E720466F
:10460000FFF7D4FC00287FF47BAFAB79204643F062
:104610000103AB71FFF76EFC2BE78DF808B08DF846
:104620000990ADF80AA08DF80C008DF80D7093E894
:104630000300FFF7C7FC082231462846FDF718FCA7
:10464000AEE600BF4A100020F0B585B06C4684E8A5
:1046500003002046FFF782FE284E294D074668B129
:104660009DF804301BB194E80300FFF7B1FC254C22
:1046700028783378834226D105B0F0BD94E8030052
:104680009DF8042002AB83E80300002AEFD03078C5
:104690002A78441C04F0070494420AD01946194BA6
:1046A000082203EBC000FDF749FB3470FFF7C4FD9F
:1046B000DDE7FFF74BFC08223946134837702F70AF
:1046C000FDF7D6FBD3E704EBC000FFF747FE002859
:1046D000D2D02B7834F8330004EBC3035F889A8878
:1046E000D98840EA074042EA0141FFF771FC2B7884
:1046F000013303F007032B70BAE700BF92100020CC
:1047000093100020521000204A100020024B014656
:10471000186801F043B900BF640C0020024B014649
:10472000186801F053B900BF640C0020014B1868F1
:1047300001F064B9640C0020014B1878C008704780
:10474000D4100020024B187800F00700704700BF1B
:10475000D4100020034B187810F0070018BF012078
:10476000704700BFD4100020014B1878704700BF7D
:10477000D7100020024A137818431070704700BF0A
:10478000D7100020024A137823EA00001070704707
:10479000D7100020014B00221A707047D71000205C
:1047A000024A137818431070704700BFD8100020D9
:1047B000024A137823EA000010707047D8100020D6
:1047C000014B00221A707047D8100020704708B5BE
:1047D000FFF7FCFF08BD000008B5054A1378034247
:1047E00004D023EA00001070FFF7F1FF08BD00BFFE
:1047F000D5100020704708B5FFF7FCFF08BD00008A
:1048000008B5054A137830EA030C03D0034313704C
:10481000FFF7F1FF08BD00BFD610002008B5054A1C
:104820001378034204D023EA00001070FFF7E3FF7F
:1048300008BD00BFD610002008B5044B1A781AB185
:1048400000201870FFF7D7FF08BD00BFD61000206A
:1048500010B5124B12491B780978124C0B431249C0
:1048600020680978037031B10B43037001F010F830
:1048700008B1FFF7E1FF24680C4920222046FDF72C
:104880002DFA48B1214620220848FDF757FA204664
:10489000BDE8104000F0E4BF10BD00BFD7100020FD
:1048A000D8100020640C0020D6100020B410002086
:1048B000704708B5FFF7FCFF08BD0000094A5278B1
:1048C000520710B50AD5084C41EAC0012170FFF724
:1048D000C5FB2078C008FFF7ECFF10BDBDE8104015
:1048E000FFF7BCBB00210020D410002008B5034B0B
:1048F00000201870FFF7DDFF08BD00BFD4100020B6
:1049000008B50A4A137823EA0000107042070CD158
:1049100098420AD0064B5B785B0706D5C008FFF7C4
:10492000A9FBBDE80840FFF7E1BF08BDD410002097
:1049300000210020094A08B55378C3F38001814261
:104940000AD060F382035370108800F038F8022018
:10495000BDE80840FFF7D4BF08BD00BF002100201C
:10496000044B5878C0F3800080F0010000F0010093
:10497000FFF7E0BF002100200120FFF7DBBF002090
:10498000FFF7D8BF08B500F077FD4FF6FF710020A4
:10499000BDE8084000F054BD08B5002000F0E9FC77
:1049A0004FF6E663C31A5842584108BD022000F092
:1049B000D1BC032000F0CEBC042000F0DABC0146DC
:1049C000042000F03DBD01460F2000F047BD014628
:1049D000132000F043BD0020FFF7F9BF08B5002009
:1049E000FFF7F1FFFFF7F7FF08BD000013B500F078
:1049F00043FD4FF6E661002000F022FD0021022079
:104A000000F010FD0021032000F00CFD1A4B0024E3
:104A10004FF4A05104201C8000F012FD2146062016
:104A200000F000FDFF21072000F0FCFC21460820DB
:104A300000F014FD2146242000F0F4FC214617204C
:104A400000F0F0FC21460C2000F0ECFC21460D208B
:104A500000F0E8FC00230022CDE90023684608228C
:104A6000182100F0C5FC2146202000F0F7FCFFF7DC
:104A7000B5FF02B010BD00BF0E100020FFF7B6BF9B
:104A800001460E2000F0CEBC73B50C4C01F07CF852
:104A90002388834205460ED00026ADF8006001F061
:104AA00073F8ADF80460ADF8020002AB13E903003F
:104AB000FEF75AFF258002B070BD00BFE410002051
:104AC00008B501F02BF8024B1860024B186008BDC6
:104AD000DC100020E01000207047704708B5FFF799
:104AE000FCFF08BD08B5FEF7DDFD08BD01207047DD
:104AF00008B5054800F04EFA00F0C6FCFFF7ECFFE1
:104B0000FFF7ECFF08BD00BF8D4F0060012070472C
:104B100008B5FFF7FBFF08BD7047704708B5FFF702
:104B2000FBFFFFF7FAFF08BD08B500F03BFABDE850
:104B30000840FEF7EEBE08B500F0EEFF00F0E4FA24
:104B4000FFF7F2FFFFF7CEFF08BD00002DE9F04FA1
:104B500085B0FFF7CBFF30B9FFF796FF05B0BDE892
:104B6000F04FFEF7EBBE2B4F00F0E8FA3E46002474
:104B700020460134E4B216F8015B00F03BFA0F2C3A
:104B800045D08542F4D0244B1B789B0701D500F01B
:104B900037FAFFF7BDFF002600904FF0010B5FFAD8
:104BA00086F8404600F026FA17F8012B904282461C
:104BB00027D00024012542400DF10809154218D0E4
:104BC000009BB3B101928DF808408DF8098000F088
:104BD000DBFF1AEA050F14BF01210021ADF80A001E
:104BE0008DF80CB08DF80D1099E80300FEF7BCFEAF
:104BF000019A0134E4B26D00072CEDB2DED107F862
:104C000001AC01360F2ECAD1FFF75AFFA6E7854245
:104C1000B9D1A1E7E6100020F510002038B500F06A
:104C2000D7F8B0F5A44F04462CD2B0F5A04F80F0D1
:104C30009580E7280ED8E02806D2A42806D80428B4
:104C400002D2012818BF0024204638BDCD284DD2FD
:104C50000024F9E7B0F5804F4CD2B0F5005F80F04A
:104C60008C80B0F5807FF3D3C0F3072000F038F9D3
:104C70000546E0B200F0ACF82D0205F4F8552843E3
:104C800084B2E1E7B0F5A54F12D245F26023984215
:104C900052D245F23F23984241D845F22023984210
:104CA00031D300F01F044AF2F10040EA0424CBE7BC
:104CB00045F2BF2398420DD845F2A023984200F058
:104CC0001F0046D300F00CF9000200F4F85040F445
:104CD0000054B9E745F2DF239842B9D8040204F43E
:104CE000F85444F4204444F0F004ADE740F4A04408
:104CF000A4B2A9E7C0B200F06BF804F470640443F6
:104D000044F42044F4E7C4B2A008012304F00304EF
:104D100003FA04F444EA401444F40D44E8E7C4B24E
:104D2000C4F38200012304F0030403FA04F444EA08
:104D3000401444F40C44DBE7C4B2C4F38200012302
:104D400004F0030403FA04F444EA401444F40A446B
:104D5000CEE74AF2F40444EA002475E700F01F00AD
:104D600000F0BEF8C306C4F3431448BF0001240298
:104D700000B2044344F41044BAE7C0F3042000F046
:104D8000AFF80546E0B200F023F82D0205F4F8551F
:104D9000284340F4005073E782B0ADF80410C1F32B
:104DA00007210E2906D89DF80420062A02D802B051
:104DB000FEF7BABC002002B0704707B5ADF804108A
:104DC0000199FFF7E9FF03B05DF804EBFFF726BF99
:104DD000822825D00CD8312867D004D829285AD069
:104DE0002A2869D07047352850D0392818D0704704
:104DF000E32833D004D8E0281CD0E22829D070471B
:104E0000E62835D0E72838D0E42835D1334B5A7816
:104E1000910731D51B7813F0100F08BFE72015E07C
:104E20002E4B1A78920752D15B7813F0080F18BFF7
:104E300029207047294A1378D90744D4527812F0B0
:104E4000010F19D013F0100F08BFE32018BF002086
:104E50007047224B1B7813F0040FF2E71F4A1378B8
:104E6000590732D45278D20731D413F0100FEDE73E
:104E70001A4B1B781A07CED47047184A13781907B3
:104E800027D452789107F0D5E4207047134B1B7854
:104E900013F0200FCBE7114B1A7892061BD45B78E6
:104EA00013F0080F18BF392070470C4B1B7813F014
:104EB000400F18BF2A207047084B1B7813F0400F93
:104EC00018BF3120704739207047E2207047E0203A
:104ED0007047E62070473520CEE700BF0021002054
:104EE000294B1A78510707D500F01801082927D156
:104EF00000F0F70040F00400110707D500F018019A
:104F0000182926D100F0E70040F014005B78D9079B
:104F100007D500F01801082924D100F0F70040F06F
:104F20000100990707D500F01803182B23D100F0D2
:104F3000E70040F01100D30648BF00F0E7007047DB
:104F400000F01401042904BF00F0FB0040F0080049
:104F5000D2E700F01401142904BF00F0EB0040F088
:104F60001800D3E700F01101012904BF00F0FE0092
:104F700040F00800D5E700F01103112B04BF00F04A
:104F8000EE0040F01800D6E7002100200020704716
:104F900000207047014B1860704700BF680C00206C
:104FA0007047000008B5FFF7F7FC08B9FFF766FD8A
:104FB000FFF7FCFC094B1870FFF7FEFC084B18804C
:104FC000FFF7EEFFFFF7F5FC80B2FFF716F8054B91
:104FD0001888BDE80840FFF72BB800BFF510002087
:104FE00000210020101000207047704708B5FFF71F
:104FF000FCFF08BD014B185C704700BF1121002069
:105000007047704708B5302383F31188C1B220F48C
:105010007F60032220F00F0002F06EFB002383F379
:10502000118808BD38B50C4D0F2455F8040B421CEF
:1050300001D0FFF7E7FF013C14F0FF04F5D1074D65
:10504000072455F8040B431C01D0FFF7DBFF013C9C
:1050500014F0FF04F5D138BD589800603C9800600A
:105060002DE9F84F254F57F821400E46611C804628
:1050700038D0302383F31188DFF884A004EA0A05CE
:10508000E4B221462846062202F036FB21460022E1
:10509000284602F023FB002484F31188FFF7B1FFB8
:1050A000DFF860B007254FF001095BF8040B421CE4
:1050B0001AD10023013D1C434FEA490915F0FF05B1
:1050C000E4B25FFA89F9F0D157F82600431C01D009
:1050D000FFF798FF211C18BF01213046FEF774FA34
:1050E00008F80640BDE8F88FC1B200EA0A0002F0F5
:1050F000EBFA0028DDD14FFA89F3DBE7589800601E
:1051000000F0FFFF3C98006010B50F24FFF78AFF06
:10511000224600210748FCF7ABFE22460021064844
:10512000FCF7A6FE204600F037F8BDE81040FEF779
:1051300039BA00BF112100200221002030B585B00E
:105140000F2200216846FCF793FE0024E1B2684676
:105150000134FFF785FF0F2CF8D1224669460C4831
:10516000FCF7BCFD002814BF0125002504D0224611
:1051700069460748FCF7E2FD2B460F220549044823
:1051800000F024F80446FFF731FF204605B030BD9B
:10519000022100201121002010B50446C0EBC00000
:1051A000FCF78CFD084B1860002307301946DAB273
:1051B000944200D810BDC21F02F8011B8242FBD1ED
:1051C00001330730F3E700BFF81000202DE9F04F5E
:1051D0004B4C85B0984626784A4B03909346002264
:1051E0000D461A700193002E5AD000F097FC464AE3
:1051F00013681060C31AFF2B05D82BB9B8F1000F44
:105200005BD1B0464FE0FF23D8B2404B002119706C
:105210003F4B21701A688C46013A0B468E468946F0
:10522000CFB2BB450AD8BEF1000F01D001222270D7
:10523000BCF1000FE2D0354A1370DFE702F1070A34
:1052400012F8017F4FB1B84231BF3F1A82F8009087
:10525000B44633463CBF1770B6465245F0D10131D3
:10526000DEE7009A5678039A12F803C0002286EA15
:105270000C0C09FA02F7FFB21CEA070F07D0A95C71
:1052800029B9012005F802A07E40804686460132F9
:10529000072AEED1009A02F8016F013300921BE059
:1052A000B8F1000F05D1194B1B781BB3B8F1000FF3
:1052B00003D100F033FC144B1860154B94F800E058
:1052C0001B680293019B18786B1E0093002398467D
:1052D0004FF001094FF0140A029AC3EBC3051544BD
:1052E000DAB29345BDD8B8F1000F03D0054B84F86E
:1052F00000E01870019B187805B0BDE8F08F00BF82
:10530000F7100020F6100020FC10002000110020F3
:10531000F810002008B500F0DFFEFFF70CFCBDE838
:10532000084000F0EFBE08B500F0F2FEFFF70EFCFB
:10533000BDE8084000F00CBF08B500F0BBFB00F072
:10534000C8FEFFF7D5FBFFF7E5FFFFF7ECFFFFF720
:10535000E5FBFAE707B50023014601220DF107003E
:105360008DF8073000F092F89DF8070003B05DF863
:1053700004FB07B50023014602220DF10600ADF83B
:10538000063000F083F8BDF8060003B05DF804FBBA
:1053900007B50422002301460DEB0200019300F043
:1053A00075F8019803B05DF804FB07B501228DF88C
:1053B000071001460DF1070000F07EF803B05DF81C
:1053C00004FB07B50222ADF8061001460DF10600F8
:1053D00000F072F803B05DF804FB07B504220191F8
:1053E00001460DEB020000F067F803B05DF804FB26
:1053F000F8B5D31D23F0070300AFADEB030D054651
:10540000144668460E4600F041F822466946284692
:10541000FCF764FC20B122463146284600F04CF8E7
:10542000BD46F8BD38B50C460546FFF793FFA042D0
:1054300005D021462846BDE83840FFF7B6BF38BD45
:1054400038B50C460546FFF794FFA04205D021462B
:105450002846BDE83840FFF7B4BF38BD38B50C4624
:105460000546FFF795FFA04205D021462846BDE836
:105470003840FFF7B2BF38BD282200210148FCF7B1
:10548000F7BC00BF04110020FFF7F6BF38B50D468A
:1054900014460021FCF7ECFC2A19282A88BFC5F124
:1054A000280434B1034922462944BDE83840FCF7BA
:1054B00045BC38BD041100200B461144282988BF83
:1054C000C3F1280222B1014602481844FCF736BC59
:1054D000704700BF0411002038B505464879002800
:1054E00000F0DC80A5F5E045ABB2222B00F2BB80DA
:1054F000FFF762FA6A4C013D2080212D12D8DFE8C7
:1055000005F04DBD551B1F59235D692FB5336D3710
:1055100071973B759F417B8327612B65477F8EA9E0
:10552000B31651C5237843F00103237095E06378E7
:1055300043F00803637090E0237843F00203F4E73C
:10554000237843F00403F0E7237843F00803ECE703
:10555000637843F00103EDE7637843F00203E9E782
:10556000237843F01003E0E7237843F02003DCE7DF
:10557000237843F04003D8E7FEF7E8FC237843F0B4
:105580008003D2E7237823F00C0343F00C03CCE72D
:10559000637823F0030343F00303CBE723786FF32F
:1055A0000003C2E763786FF3C303C3E723786FF3A5
:1055B0004103BAE723786FF38203B6E723786FF3EA
:1055C000C303B2E763786FF30003B3E763786FF365
:1055D0004103AFE723786FF30413A6E723786FF353
:1055E0004513A2E723786FF386139EE7FEF7AEFC20
:1055F00023786FF3C71398E7237823F00C0394E71D
:10560000637823F0030395E72378C3F3800282F0E5
:105610000102D2B262F3820362F3C30385E76378C7
:10562000DA4302F0010262F3000362F3410381E70F
:105630002378C3F3801282F0010262F3861374E7C9
:10564000FEF784FC2378C3F3C01282F0010262F3F8
:10565000C7136AE70120FFF713FA2088FFF7AFF9B5
:10566000FEF774FC002038BD0020F4E72378C3F374
:10567000001282F0010262F3041356E72378C3F3A9
:10568000000282F0010262F300034EE76378C3F385
:10569000C00282F0010262F3C3034BE70120E2E79C
:1056A0000021002047F61643984210B50C461BD146
:1056B000FFF75AF862790D4B72B100F0AA0000288A
:1056C00015BF01220022352029201A70FFF71EF88D
:1056D000FFF7BEF8002010BD1B78002B14BF35204B
:1056E0002920FFF71BF8F3E70120F4E72C11002035
:1056F000F8B5144642799DF818701D46284B92B1B2
:105700001C7000F041FA274B188004F12003DBB233
:10571000072B44D804F007040120A040C0B2BDE824
:10572000F840FEF702BA1E78A6422ED11D4B18880B
:1057300000F02FFAC72828D8AE4205F1200415D072
:1057400006F12003DBB2072B06D806F0070601207E
:10575000B040C0B2FEF7F2F9E3B2072B06D805F06D
:10576000070301209840C0B2FEF7DFF93846E4B2E3
:10577000FEF7D3F9072C12D805F007050120A84041
:10578000C0B2BDE8F840FEF7D9B904F12003DBB29E
:10579000072B04D804F007040120A040F0E7F8BD6F
:1057A0002D1100202E11002013B5A0F5F840183857
:1057B0000C4606283BD8DFE800F0171E0410252C05
:1057C000330026230093E1231A4647F61A41204668
:1057D000FFF78EFF002002B010BD27230093E523C2
:1057E0001A4647F61B41F2E726230093E022E12305
:1057F00047F61841EBE727230093E422E52347F619
:105800001941E4E726230093E222E12347F61C41F5
:10581000DDE727230093E622E52347F61D41D6E77F
:1058200028230093E522012347F61E41CFE748795C
:1058300018B1034B00221A70CDE70120CBE700BF5F
:105840002D110020014B1860704700BF301100205F
:10585000024B186808B103681847704730110020E0
:10586000084B1B686BB1084A127842B1074A92F99B
:105870000020002ABFBF02784270062202705B68D7
:1058800018477047301100206C0C002000210020C8
:105890000C4B1B78821C63B10B4B93F90030002B2F
:1058A000ACBF06231E230020013BDBB2FF2B02D13D
:1058B00070470623F7E712F8011B0029F4D00130E6
:1058C000C0B2F1E76C0C002000210020F1B1114BB7
:1058D0001B789BB1104B93F90030002B0EDACA08ED
:1058E0001D2A13D81044012301F0070103FA01F126
:1058F0008378194214BF012000207047831C0830B0
:1059000013F8012B8A4203D08342F9D1002070475B
:10591000012070476C0C00200021002030B54FF0B2
:10592000FF33851C002215F8014B8C420ED0B3F1D9
:10593000FF3F02D1002C08BF13460132D4B2062C1F
:1059400062B2F0D15A1C01D01844817030BD10B53C
:10595000831C0022083013F8014B8C4208BF03F867
:10596000012C8342F7D110BDCB081D2B07D818445A
:1059700001F0070301219940837819438170704732
:10598000CB081D2B08D8184401F0070101238B40D8
:10599000817821EA030181707047000010B4094C3E
:1059A000247803460A463CB1074C94F90040002C89
:1059B00002DA10BCFFF7D8BF1146184610BCFFF73B
:1059C000ADBF00BF6C0C00200021002010B4094CBA
:1059D000247803460A463CB1074C94F90040002C59
:1059E00002DA10BCFFF7CCBF1146184610BCFFF717
:1059F000AEBF00BF6C0C002000210020074B1B78BD
:105A0000023043B1064B93F90030002B03DA1E221B
:105A10000021FCF72DBA0622FAE700BF6C0C00202B
:105A200000210020704708B5FFF7FCFF08BD00000B
:105A300008B50028034B14BF022001201870FFF79F
:105A4000F2FF08BD3411002008B5034B0320187085
:105A5000FFF7E9FF08BD00BF34110020FFF7E8BFE2
:105A600008B5034B01201870FFF7DDFF08BD00BF2C
:105A700034110020FFF7F4BF70477047704708B536
:105A8000FFF7FCFF08BD704708B5FFF7FCFF08BD36
:105A900010B5FFF7F1FFFFF751FBFFF7EEFF002412
:105AA000E0B2FFF7A7FA18B901340F2CF8D110BDF6
:105AB0000120FCE708B500F063FEBDE8084000F0F7
:105AC00013BC08B5FDF7F0FEAA20BDE8084000F0C1
:105AD000DEBD08B5FEF75EFEFEF772FEFEF726FE9F
:105AE000BDE80840FDF7E7BE302383F31188064B7D
:105AF000DA69064B1A60064A00231360054A1360F0
:105B000083F31188704700BF482100204011002016
:105B1000381100203C110020FFF7E6BFD0B530233C
:105B200083F31188134B144CD969144B22681868FD
:105B3000891A8842124808D9A2F5E4522260046802
:105B4000104A224401F5E451026019600468002300
:105B500083F311884FF47A7042F20F760027E0FB4E
:105B6000016742F21072002330463946FBF7D6FE39
:105B70002044D0BD482100204011002038110020D1
:105B80003C110020C096991908B5FFF7C7FF80B2F5
:105B900008BD10B50446FFF7C1FF001B80B210BD61
:105BA00008B54FF47A7000F072FD00BE08BD704772
:105BB0007047000010B5084A084C117824784B1C37
:105BC00003F00F039C421DBF054C1370605400206E
:105BD00018BF012010BD00BF30210020312100205E
:105BE00020210020302383F31188002383F31188C0
:105BF00070470000F8B50B4C90F87B7090F87A6015
:105C00001D462346002043F8040F42EA012046EADD
:105C10000722294600F09EFA20606068002818BF1D
:105C20002046F8BD4411002090F87A10054B022957
:105C30001A7804D1012A01D0062A02D15A78024BDF
:105C40001A7070479C1100207811002010B504468E
:105C5000052922D8DFE801F01D21031D1D1F302377
:105C600083F311880D4A012100F0EEFD0C4A022158
:105C7000204600F0E9FD002383F31188094B1B78CF
:105C800013B10520FFF796FF0220BDE81040FFF793
:105C900091BF0846F9E70520F7E710BD949800602A
:105CA000B89800609911002070B504460648036852
:105CB0000D460BB100F066FB2B462146034A024815
:105CC000BDE8704000F056BB60110020D15C006060
:105CD00070B530230E4683F311880B78042B03D064
:105CE000002383F3118870BD154B1B78DB09F7D1B6
:105CF000144C2278002AF3D0134B1B78002BEFD0E2
:105D00000B899B0705D40823104A0121304600F077
:105D1000EDFD247842F21073A4FB034540F2E73016
:105D200020184FF000014FF47A724FF0000345EB5A
:105D30000101FBF7F3FD31468000FFF7B5FFCFE728
:105D4000002100205C1100206C0C00207911002043
:105D5000F8B590F8743003F07F02212A044678D118
:105D600013F080032AD0002B73D090F8750002281E
:105D70001FD0032814D001286BD194F878302BB9A8
:105D8000434AA2660822E2662367F8BD414B94F8B5
:105D900076201A70A36694F87A30E3660023F3E75E
:105DA000B4F87830002B54D13B4AA2660120E0665B
:105DB000EAE73A4BA3660120E066EFE790F875301A
:105DC0000A2B3DD00B2B0DD0092B42D190F8783007
:105DD000012B3ED8324B83660223C366314B2367C7
:105DE0000120D2E7B0F8783033BB90F876502A4BD8
:105DF000002D14BF012200221A701DD1274B1A78E2
:105E0000D2B1302282F311881E7842F21073A6FBC1
:105E1000036740F2E73030184FF000014FF47A7218
:105E20004FF0000347EB0101FBF778FD21468000AE
:105E3000FFF73AFF85F311880023A366E366CEE7F8
:105E40001949164B0D7890F877201A70ED09F3D1A7
:105E5000D6E7B4F8742040F281639A4201D0002062
:105E600093E794F87920616894F878304D6894F855
:105E7000771043EA0223204694F87620A8470028AA
:105E8000EDD04368A3660368E3660023A7E700BF7D
:105E900079110020B01100206C0C00205C11002052
:105EA0009C110020295C00600021002008B5102210
:105EB00000210448FBF7DCFF034A00231370034A68
:105EC000137008BD20210020302100203121002046
:105ED000F8B5294D294E2C4630782B78284F0021D3
:105EE000984230D101B12070F8BD2370254B0122BA
:105EF0001A70254B93F87F10081C18BF0120FFF77C
:105F0000A3FDE9E723701F4B00221A70FFF7E1FDA4
:105F10001D4B93F87F10081C18BF0120FFF79EFD52
:105F2000DAE72370184B93F87F10081C18BF012084
:105F3000FFF77EFDD0E7002123700846F8E72370C5
:105F4000FFF78EFDC8E71A460133BA5C03F00F0372
:105F50000121052AC4D80FF2080C5CF822F000BF1A
:105F60003F5F0060E15E0060235F0060375F0060BC
:105F7000EB5E0060055F00603121002030210020D1
:105F80002021002099110020C421002038B50E4C9A
:105F90002368002201210546986802F0EFFC28469C
:105FA00000F028FC4FF4FA7000F071FB0749284616
:105FB00000F009FC236800221146986802F0DEFC1C
:105FC000034B00221A6038BDC0210020DC9800601D
:105FD0006011002038B50B4C2368054600229868F4
:105FE000012102F0CBFC284600F004FC06492846BB
:105FF00000F0E9FB2368002298681146BDE83840AC
:1060000002F0BCBCC0210020DC980060014B187875
:10601000704700BF7811002070B5302304460D464C
:10602000164683F311880F490B78042B03D0002305
:1060300083F3118870BD01200B89A040184209D05C
:1060400001EB8401CB68586964210C3000F02CFB13
:106050000130ECD033462A462146024800F046FC87
:10606000E5E700BFC421002010B50D4B1B780446A6
:1060700053B9014608220120FFF7CEFF2022214616
:106080000848FBF75BFE10BD074B93F90030002B6F
:106090000146ABBF0822202201200220ECE700BF0E
:1060A0006C0C0020791100200021002070477047FF
:1060B00070477047704708B5FFF7FAFF00F095FE8C
:1060C000FFF7F7FF08BD08B500F097FEFFF7F2FFF6
:1060D00008BDFFF7CFBC000008B5FFF7E7FE064894
:1060E000FFF754FF054B064A1A604FF4FA70BDE8FB
:1060F000084000F0CCBA00BFC4210020D01100201D
:10610000700C0020014B1868FFF79CBBD0110020D9
:1061100038B50E4CFFF7DCFE2378052B14D125464D
:106120002378052B03D0BDE83840FEF791BBFFF77D
:10613000C8FCFFF7ADFC0028F2D0284600F0E8FBD1
:106140002846FFF747FFEBE738BD00BFC42100201A
:1061500070470000020A032A11D006D8012A1ED077
:10616000022A1FD00020024611E0212A11D0222A43
:10617000F8D1E9B10129F5D13B200F4A07E0C0B2BF
:106180000228EFD80D4A0E4952F82020085C1A6008
:10619000704751B10129E5D109200A4AF7E71220D9
:1061A000094AF4E73B20094AF1E70920084AEEE7EB
:1061B0004020084AEBE700BFE8990060EC980060D7
:1061C000F89800602699006036990060FB9800609E
:1061D0000D99006048990060024B034A1A60034A17
:1061E0005A607047342100206022002000000820FF
:1061F000094B30B51C684D1E224449422A440A40CE
:1062000059681044884204D8A04202D3186010464E
:1062100030BD0022FBE700BF3421002008B5302349
:1062200083F31188FFF7E4FF002383F3118808BD8F
:1062300070B5BFF34F8FBFF36F8F1B4B0021C3F8B7
:106240005012BFF34F8FBFF36F8F5A6942F4003281
:106250005A61BFF34F8FBFF36F8FC3F88410BFF342
:106260004F8FD3F88020C2F3C900C2F34E325201DF
:1062700043F6E07402EA0406014646EA817511F12C
:10628000FF31C3F86052F8D2203A12F1200FF1D159
:10629000BFF34F8F5A6942F480325A61BFF34F8F78
:1062A000BFF36F8F70BD00BF00ED00E0FEE70000A0
:1062B0000C4B70B50820002493E826000439954261
:1062C00007D8D968914209D8013803F11003F3D1F6
:1062D00070BD51F8046F42F8046BF0E742F8044BCC
:1062E000F0E700BF249A006038B5084C0123002570
:1062F00023706560FFF770FF0549064800F03CF920
:106300000223237085F3118838BD00BF402100208F
:10631000A49A00604821002072B6034BD865034B55
:1063200003221A70FEE700BF482100204021002010
:10633000034BDA68937D0BB1013B937500F034B8E1
:106340004821002010B50A4A13699C68A1420CD864
:106350005C68816003604460206058609868411AFE
:1063600099604FF0FF33936110BD091B1B68ECE788
:106370004821002010B403610023C260436110BCB7
:10638000FFF7E0BF036881689A680A449A60426830
:1063900013605A6000230360024B4FF0FF329A6192
:1063A000704700BF4821002070B5124DEA692946A8
:1063B0000132EA6151F8102F8A4206D09368013BFE
:1063C000936030262C69A36803B170BD22686168B0
:1063D0000A605160236083F31188E36821692046D5
:1063E000984786F3118861690029EBD02046FFF7B2
:1063F000A9FFE7E7482100200023037582680369AD
:106400001B6899689142FBD25A6803604260106031
:106410005860704700230375826803691B68996898
:106420009142FBD85A680360426010605860704720
:1064300008B5302383F311880A7D0023052A06D886
:10644000DFE802F00C050503130F8A6913604FF0B3
:10645000FF338B610846FFF7CFFF002383F31188DA
:1064600008BD8A699368013393604A680B681360BA
:106470005A60ECE7084B10B51C68D86822681A60AF
:10648000536001222275DC60FFF7C4FF01462046FD
:10649000BDE81040FBF72CBA48210020FFF7ACBF45
:1064A000064BD9681422087518688A7502681A6044
:1064B000536001220275D860FBF71ABA4821002008
:1064C00030B50C4BDC684B1C87B005460FD023461B
:1064D000094A6846FFF74EFF2846FFF7E1FF009B99
:1064E00013B16846FFF74EFFA06907B030BDFFF754
:1064F000D7FFF9E74821002031640060044B1A6897
:10650000DB6892689B689A4201D9FFF7B3BF704776
:1065100048210020084BDA681B6898689368927DD0
:1065200022B1984294BF002001207047984234BFA6
:1065300000200120704700BF482100200C4B10B5FF
:106540001C68D86822681A60536001222275DC60DA
:10655000837D4BB9FFF750FF142383750146204616
:10656000BDE81040FBF7C4B9FFF754FFF6E700BFE2
:1065700048210020FEE7000070B504460025194BB5
:10658000856286B021630E46586000F0ADF804F1D4
:106590001003236163614FF0FF33A361124BE56188
:1065A000DA6924600023C4E9082304F1340164603B
:1065B000A560E562E56580230C4A204600F01CF8E2
:1065C0000123E0600A4A0375009272680192B26882
:1065D000CDE90223074B6846CDE9043500F042F8C7
:1065E00006B070BD4021002048210020B39A006011
:1065F000B89A00607565006002228B608A824B62E7
:106600001422002308618A750B62CB61084670472B
:106610008368C168A3F14C0243F81C2C026943F85B
:106620004C2C426943F8482C0C4A43F82C2C0C485B
:1066300043F8180C022203F8142C1420002203F84B
:10664000120C43F8201C03F8132C43F8041C43F8E5
:10665000082C43F80C2CA3F12800704701190060A6
:106660004821002008B5FFF7D3FFBDE80840FFF739
:1066700015BF0000024BDB6898610F20FFF710BFC9
:1066800048210020302383F31188FFF7F3BF08B5BA
:106690000146302383F311880820FFF711FF002300
:1066A00083F3118808BD0000054BDB6821B103604E
:1066B00098610320FFF704BF4FF0FF30704700BF21
:1066C0004821002003682BB100220260996118461E
:1066D000FFF7E4BE7047EFF30983203383F30988A3
:1066E000002383F311887047302080F3118862B64D
:1066F0000D4B0E4AD96821F4E0610904090C0A43E4
:106700000B49DA60CA6842F08072CA60094A0A49D5
:10671000C2F8B01F116841F0010111602022DA7740
:1067200083F82200704700BF00ED00E00003FA0587
:10673000F0ED00E0001000E055CEACC510B5302300
:1067400083F311880B4B5B6813F400630FD0EFF3F6
:106750000984203C4FF08073E36184F30988FFF7DC
:10676000D9FE10B1044BA36110BD044BFBE783F3CA
:106770001188F9E700ED00E01319006016190060B8
:1067800008B500F0A8FB054801F056F800F00AF83B
:10679000FFF799FCBDE8084000F002B8C39A00601A
:1067A00001F08CB901F096BA012303700023436015
:1067B00000F12C0200F1480142F8043B8A42936147
:1067C000FAD18360704738B50546302383F31188CA
:1067D00000244160C460046144618461C461046256
:1067E0004462846201F09EFA02232B7084F31188C4
:1067F000204638BD70B53023064683F311883446F1
:1068000001F0A6FA00250123756004F80C3B2C3634
:1068100054F8043B7BB1586920B16FF001010C3092
:10682000FFF750FF54F8043C986920B16FF0010164
:106830000C30FFF747FFB44244F8045CE8D1FFF79F
:106840005DFE85F3118870BD70B500EB81030546D0
:106850005069DA600E46144618B110220021FBF789
:1068600007FBA06918B110220021FBF701FB31469C
:106870002846BDE8704001F0DFBAF8B5836803F040
:1068800001130446836000F1100500F12C06002777
:1068900055F8043B7BB1586920B16FF001010C3011
:1068A000FFF710FF55F8043C986920B16FF0010123
:1068B0000C30FFF707FFB54245F8047CE8D12046CD
:1068C000BDE8F84001F0FCBAF0B400EB8104478960
:1068D000E4680125A4698D403D4345812360002380
:1068E000A2606360E360F0BC01F0FCBAF0B400EBBE
:1068F00081040789E468012564698D403D43058171
:1069000023600023A2606360E360F0BC01F0FCBA86
:1069100070472DE9F0410223002504460370C56746
:10692000856000F10C0600F12C074FF0300856F896
:10693000043BABB188F3118856F8043C586920B188
:106940006FF001010C30FFF7BDFE56F8043C98696A
:1069500020B16FF001010C30FFF7B4FE85F3118810
:10696000BE4246F8045CE2D184F86450204601F04F
:1069700005FA63681B6823B120460021BDE8F04199
:106980001847BDE8F081F8B50378052B044629D0F7
:1069900080F880300523037043681B680BB1042125
:1069A00098470026A66004F10C0530272C3455F8D2
:1069B000043BABB187F3118855F8043C586920B10A
:1069C0006FF001010C30FFF77DFE55F8043C98692B
:1069D00020B16FF001010C30FFF774FE86F31188CF
:1069E000A542E4D1F8BD0178052906D1436890F8A5
:1069F00080201B68027003B11847704790F864301C
:106A000070B5044613B1002380F8643004F17402B9
:106A1000204601F066FA63689B68B3B994F8743055
:106A200013F0600539D00021204601F081FA0021E1
:106A3000204601F077FA63681B6813B106212046EF
:106A40009847062384F8643070BD20469847002894
:106A5000E4D094F87B2094F87A3043EA0223E26E83
:106A60009A4288BFE36694F97430E56E002B4FF0CC
:106A7000300380F20B81002D00F0FA80092284F8A7
:106A8000642083F311880021E36EA26E2046FFF795
:106A90002DFF002383F31188D6E794F8752003F0C7
:106AA0007F0343EA022340F20232934200F0CC809B
:106AB00025D8022B00F0A08009D8002B51D0012B43
:106AC000B1D17F4BA3660223E36600234EE0B3F50A
:106AD000817F00F0A680B3F5407F49D0B3F5807F79
:106AE000A1D194F87630012B9DD1B4F87C3023F0FD
:106AF0000203A4F87C30A566E5662567A9E740F2A5
:106B0000016293421DD8B3F5C06F3BD2B3F5A06FBD
:106B100089D1B4F87430B3F5A06F0ED194F8763003
:106B200084F87E30204601F059F963681B6813B180
:106B3000012120469847032323700023A366E366C0
:106B400014E0B3F5106F33D040F602429342B8D050
:106B5000B3F5006F7FF467AF04F17F03A3660123F1
:106B600024E004F17C02A2660222E266236770E759
:106B700094F87630012B7FF456AFB4F87C3043F0B4
:106B80000203B6E794F87920616894F878304E688B
:106B900094F8771043EA0223204694F87620B04711
:106BA00000283FF440AF4368A3660368E366A4E7A8
:106BB0002378042B10D1302383F311882046FFF76C
:106BC0005CFE85F31188636884F87F501B6803219D
:106BD00021700BB12046984794F87630002BACD04A
:106BE00084F87F300423237063681B68002BA4D0D3
:106BF000022120469847A0E794F878301D0603F05C
:106C00000F0120460AD501F064F9012804D00228BA
:106C10007FF409AF2B4B55E72B4B53E701F051F9AC
:106C2000F3E794F87630002B7FF4FDAE94F87830DB
:106C300013F00F0181D01A06204602D501F086F923
:106C40007BE701F07DF978E794F87630002B7FF44C
:106C5000EAAE94F8783013F00F013FF46EAF1B06E4
:106C6000204602D501F064F967E701F05BF964E7BB
:106C7000142284F8642083F311882B462A4629467F
